{
  "contractName": "Simple",
  "abi": [
    {
      "constant": true,
      "inputs": [],
      "name": "message",
      "outputs": [
        {
          "name": "",
          "type": "string"
        }
      ],
      "payable": false,
      "stateMutability": "view",
      "type": "function"
    },
    {
      "constant": false,
      "inputs": [
        {
          "name": "newMessage",
          "type": "string"
        }
      ],
      "name": "setMessage",
      "outputs": [],
      "payable": false,
      "stateMutability": "nonpayable",
      "type": "function"
    },
    {
      "constant": true,
      "inputs": [],
      "name": "getMessage",
      "outputs": [
        {
          "name": "",
          "type": "string"
        }
      ],
      "payable": false,
      "stateMutability": "view",
      "type": "function"
    }
  ],
  "bytecode": "0x60806040526040805190810160405280601181526020017f48656c6c6f20426c6f636b636861696e210000000000000000000000000000008152506000908051906020019061004f929190610062565b5034801561005c57600080fd5b50610107565b828054600181600116156101000203166002900490600052602060002090601f016020900481019282601f106100a357805160ff19168380011785556100d1565b828001600101855582156100d1579182015b828111156100d05782518255916020019190600101906100b5565b5b5090506100de91906100e2565b5090565b61010491905b808211156101005760008160009055506001016100e8565b5090565b90565b610469806101166000396000f3fe608060405260043610610051576000357c010000000000000000000000000000000000000000000000000000000090048063368b877214610056578063ce6d41de1461011e578063e21f37ce146101ae575b600080fd5b34801561006257600080fd5b5061011c6004803603602081101561007957600080fd5b810190808035906020019064010000000081111561009657600080fd5b8201836020820111156100a857600080fd5b803590602001918460018302840111640100000000831117156100ca57600080fd5b91908080601f016020809104026020016040519081016040528093929190818152602001838380828437600081840152601f19601f82011690508083019250505050505050919291929050505061023e565b005b34801561012a57600080fd5b50610133610258565b6040518080602001828103825283818151815260200191508051906020019080838360005b83811015610173578082015181840152602081019050610158565b50505050905090810190601f1680156101a05780820380516001836020036101000a031916815260200191505b509250505060405180910390f35b3480156101ba57600080fd5b506101c36102fa565b6040518080602001828103825283818151815260200191508051906020019080838360005b838110156102035780820151818401526020810190506101e8565b50505050905090810190601f1680156102305780820380516001836020036101000a031916815260200191505b509250505060405180910390f35b8060009080519060200190610254929190610398565b5050565b606060008054600181600116156101000203166002900480601f0160208091040260200160405190810160405280929190818152602001828054600181600116156101000203166002900480156102f05780601f106102c5576101008083540402835291602001916102f0565b820191906000526020600020905b8154815290600101906020018083116102d357829003601f168201915b5050505050905090565b60008054600181600116156101000203166002900480601f0160208091040260200160405190810160405280929190818152602001828054600181600116156101000203166002900480156103905780601f1061036557610100808354040283529160200191610390565b820191906000526020600020905b81548152906001019060200180831161037357829003601f168201915b505050505081565b828054600181600116156101000203166002900490600052602060002090601f016020900481019282601f106103d957805160ff1916838001178555610407565b82800160010185558215610407579182015b828111156104065782518255916020019190600101906103eb565b5b5090506104149190610418565b5090565b61043a91905b8082111561043657600081600090555060010161041e565b5090565b9056fea165627a7a723058203bdc6717e7ddfba8b38e663ba5d705834a7b390ca2be44d1e59d14e2eebd0eca0029",
  "source": "// SPDX-License-Identifier: MIT\r\npragma solidity ^0.5.1;\r\n\r\ncontract Simple {\r\n    string public message = \"Hello Blockchain!\";\r\n\r\n    function setMessage(string memory newMessage) public {\r\n        message = newMessage;\r\n    }\r\n\r\n    function getMessage() public view returns (string memory) {\r\n        return message;\r\n    }\r\n}\r\n\r\n",
  "sourcePath": "C:\\Users\\Lenovo\\Desktop\\truffle\\contracts\\simple.sol",
  "compiler": {
    "name": "solc",
    "version": "0.5.1+commit.c8a2cb62.Emscripten.clang"
  },
  "schemaVersion": "3.4.16",
  "updatedAt": "2025-09-16T11:30:26.459Z",
  "networkType": "ethereum",
  "devdoc": {
    "methods": {}
  },
  "userdoc": {
    "methods": {}
  }
}